:020000040800F2
:10000000008001201D0400086D0400086D04000834
:100010006D0400086D0400086D0400080000000075
:100020000000000000000000000000006D04000857
:1000300000000000000000006D0400080D0400082E
:100040006D0400086D0400086D0400086D040008CC
:100050006D0400086D0400086D0400086D040008BC
:100060006D0400086D0400086D0400086D040008AC
:100070006D0400086D0400086D0400086D0400089C
:100080006D0400086D0400086D0400086D0400088C
:100090006D0400086D0400086D0400086D0400087C
:1000A0006D0400086D0400086D0400086D0400086C
:1000B0006D0400086D0400086D0400086D0400085C
:1000C0006D0400086D0400086D0400086D0400084C
:1000D0006D0400086D0400086D0400086D0400083C
:1000E0006D0400086D0400086D0400086D0400082C
:1000F0006D0400086D0400086D0400086D0400081C
:100100006D0400086D0400086D0400086D0400080B
:100110006D0400086D0400086D0400086D040008FB
:100120006D0400086D0400086D0400086D040008EB
:100130006D0400086D0400086D0400086D040008DB
:100140006D0400086D0400086D0400086D040008CB
:100150006D0400086D0400086D0400086D040008BB
:100160006D0400086D0400086D0400086D040008AB
:100170006D0400086D0400086D0400086D0400089B
:040180006D04000802
:1001840010B5054C237833B9044B13B10448AFF3CD
:1001940000800123237010BD040000200000000033
:1001A4007004000808B5034B1BB103490348AFF3BF
:1001B400008008BD00000000080000207004000852
:1001C40070B50D4D0D4C641BA4100026A64209D138
:1001D4000B4D0C4C00F04AF9641BA4100026A642F7
:1001E40005D170BD55F8043B98470136EEE755F844
:1001F400043B98470136F2E78804000888040008A5
:10020400880400089004000870477047024B13B13B
:10021400024800F005B870470000000031020008F1
:10022400002301461A46184600F014B838B5074DA5
:10023400074C641BA4101CB9BDE8384000F01CB97D
:10024400013C55F824309847F5E700BF90040008B6
:10025400940400082DE9F047DFF874A00646DAF8A4
:10026400000098460F469146FFF7CEFF164B1C68D8
:100274000CB9164C1C606568DAF800001F2D05DD0A
:10028400FFF7C3FF4FF0FF30BDE8F0879EB104EBEA
:1002940085010122C1F88890D4F88831AA4013431B
:1002A400C4F88831022EC1F8088102BFD4F88C3119
:1002B4001343C4F88C316B1C0235636044F8257019
:1002C400FFF7A3FF0020DFE7240000202800002020
:1002D4000000002010B54FF47A6000F079F8052191
:1002E4004FF0904000F050F8002405E000F080F852
:1002F400B0F5FA7F00D30124002CF7D0002CFBD0FA
:1003040005214FF0904000F051F800F077F80024F8
:10031400F2E70000B0F1904F1ED0164B98421DD06A
:1003240003F5806398421BD003F58063984219D08B
:1003340003F58063984217D003F58063984215D083
:1003440003F58063984213D003F58063984201D08B
:10035400FF20704707207047002070470120704736
:10036400022070470320704704207047052070471F
:1003740006207047000400480368490003228A40AD
:1003840023EA02030360704738B505460C46FFF7BD
:10039400C1FF00F011F821462846FFF7EDFF2B6856
:1003A40064000122A24013432B6038BD436901223B
:1003B4008A40534043617047FF2805D00349CB6C02
:1003C400012282401343CB64704700BF00100240F7
:1003D4004FF0E02304221A61B0F1807F01D36FF063
:1003E4007F404FF0E023586107221A6170470000F4
:1003F400014B1868704700BFB8010020014B002270
:100404001A607047B8010020024A13680133136070
:10041400704700BFB80100200D488546AFF3008047
:100424000C480D490D4A002302E0D458C45004334B
:10043400C4188C42F9D30A4A0A4C002301E0136021
:100444000432A242FBD3FFF7BBFEFFF743FFFEE7F4
:100454000080012000000020040000209404000813
:1004640004000020BC010020FEE70000F8B500BF36
:10047400F8BC08BC9E467047F8B500BFF8BC08BC81
:040484009E467047D9
:0804880011020008A90100089F
:0404900085010008DA
:040494002000002024
:040000050800041DCE
:00000001FF
