:020000040800F2
:1000000000800120B9070008090800080908000855
:100010000908000809080008090800080000000095
:1000200000000000000000000000000009080008B7
:10003000000000000000000009080008A9070008EF
:10004000090800080908000809080008090800084C
:100050000908000809080008E5060008E30600088A
:10006000E1060008DF060008DD06000809080008B0
:10007000090800080908000809080008090800081C
:10008000090800080908000809080008090800080C
:100090000908000809080008090800088106000886
:1000A00009080008090800080908000809080008EC
:1000B00009080008090800080908000809080008DC
:1000C00009080008090800080908000809080008CC
:1000D00009080008090800080908000809080008BC
:1000E000E1030008090800080908000809080008D9
:1000F000090800080908000809080008090800089C
:10010000090800080908000809080008090800088B
:10011000090800080908000809080008090800087B
:10012000090800080908000809080008090800086B
:10013000090800080908000809080008090800085B
:10014000090800080908000809080008090800084B
:10015000090800080908000809080008090800083B
:10016000090800080908000809080008090800082B
:10017000090800080908000809080008090800081B
:040180000908000862
:1001840010B5054C237833B9044B13B10448AFF3CD
:1001940000800123237010BD040000200000000033
:1001A4000C08000808B5034B1BB103490348AFF31F
:1001B400008008BD00000000080000200C080008B2
:1001C40070B50D4D0D4C641BA4100026A64209D138
:1001D4000B4D0C4C00F018FB641BA4100026A64227
:1001E40005D170BD55F8043B98470136EEE755F844
:1001F400043B98470136F2E7240800082408000865
:10020400240800082C08000870477047024B13B1FB
:10021400024800F005B870470000000031020008F1
:10022400002301461A46184600F014B838B5074DA5
:10023400074C641BA4101CB9BDE8384000F0EABAAE
:10024400013C55F824309847F5E700BF2C08000816
:10025400300800082DE9F047DFF874A00646DAF804
:10026400000098460F469146FFF7CEFF164B1C68D8
:100274000CB9164C1C606568DAF800001F2D05DD0A
:10028400FFF7C3FF4FF0FF30BDE8F0879EB104EBEA
:1002940085010122C1F88890D4F88831AA4013431B
:1002A400C4F88831022EC1F8088102BFD4F88C3119
:1002B4001343C4F88C316B1C0235636044F8257019
:1002C400FFF7A3FF0020DFE7240000202800002020
:1002D4000000002038B54FF47A6000F047FA3D4C36
:1002E4000D21204600F050F90C21204600F04CF975
:1002F4000A21204600F048F901210D2000F070F990
:1003040001210C2000F06CF901210A2000F068F9A9
:1003140005214FF0904000F043F90821204600F0F9
:100324003FF90621204600F03BF900F0DBF90024F8
:1003340011E005214FF0904000F04BF900F026FA4F
:1003440004460DE0234D0821284600F03BF9062120
:10035400284600F037F900F019FA031BF92BE8D806
:100364001D4B1B78032BF6D801A252F823F000BFD3
:100374004903000885030008A7030008BF03000819
:1003840000F004FAB0F5FA7FE5D3124D08212846AF
:1003940000F01FF90621284600F01BF900F0FCF9D3
:1003A400D9E700F0F3F9B0F5FA7FD4D30621094870
:1003B40000F00FF900F0F0F9CDE700F0E7F9B0F53F
:1003C400FA7FC8D30821034800F003F900F0E4F9E8
:1003D400C1E700BF00080048B80100204A4B5B6930
:1003E40013F4004F03D0484B4FF400425A61464B7C
:1003F4005B6913F4804F03D0434B4FF480425A613E
:10040400414B5B6913F4005F0AD0404B1B78012B0E
:1004140030D13E4B00221A703B4B4FF400525A61CC
:10042400394B5B6913F4805F0AD0384B1B78002B7F
:1004340061D1364B02221A70334B4FF480525A6109
:10044400314B5B6913F4006F03D02F4B4FF4006200
:100454005A612D4B5B6913F4806F54D02B4B1B787E
:10046400002B4CD1294B03221A70274B4FF4806286
:100474005A61704710B5264C0821204600F0A2F8B6
:100484000621204600F09EF8204B01221A701E4BD4
:100494004FF400525A611C4B5B6913F4805F09D01E
:1004A4001A4B1B78FBB9194B02221A70164B4FF4E6
:1004B40080525A61144B5B6913F4006F03D0124BE2
:1004C4004FF400625A61104B5B6913F4806F09D0DA
:1004D4000E4B1B785BB90D4B03221A700A4B4FF479
:1004E40080625A6110BD094B00221A70DEE7074B87
:1004F40000221A70F2E7054B00221A709CE7034BA6
:1005040000221A70B1E7704700040140B8010020CE
:1005140000080048B0F1904F1ED0164B98421DD0F1
:1005240003F5806398421BD003F58063984219D089
:1005340003F58063984217D003F58063984215D081
:1005440003F58063984213D003F58063984201D089
:10055400FF20704707207047002070470120704734
:10056400022070470320704704207047052070471D
:1005740006207047000400480368490003228A40AB
:1005840023EA02030360704738B504460D46FFF7BB
:10059400C1FF00F0DFF829462046FFF7EDFF38BD24
:1005A40038B505460C46FFF7B5FF00F0D3F82146F1
:1005B4002846FFF7E1FF2B6864000122A2401343A1
:1005C4002B6038BD436901228A4023EA0203436158
:1005D4007047436901228A405340436170470000D9
:1005E40010B5254C2268012383401A432260012957
:1005F40015D002291CD051B1092821D8042823D8A8
:100604000138032834D8DFE800F02F2B2723A16812
:100614001943A160E16821EA0303E360ECE7164AA9
:10062400916821EA03019160D1680B43D360E3E749
:10063400114A916819439160D1680B43D360DBE799
:10064400282000F06FF810BD172000F06BF8FAE7CF
:100654000A2000F067F8F6E7092000F063F8F2E7F3
:10066400082000F05FF8EEE7072000F05BF8EAE707
:10067400062000F057F8E6E700040140154B5B69DB
:1006840013F4007F03D0134B4FF400725A61114BE3
:100694005B6913F4807F03D00E4B4FF480725A6170
:1006A4000C4B5B6913F0800F02D00A4B80225A6115
:1006B400084B5B6913F0400F02D0064B40225A618D
:1006C400044B5B6913F0200F02D0024B20225A61C5
:1006D400704700BF0004014070477047704770477F
:1006E4007047000008B500F02DF80D4B5A6922F050
:1006F400F0025A615A6942F020025A615A6922F0A2
:100704000F025A615A6942F002025A611A6922F4CC
:1007140070621A611A6942F400721A6108BD00BF5E
:10072400000001404FEA501C054951F82C3000F0FC
:100734001F0001228240134341F82C30704700BF50
:1007440000E100E0024A136E43F0010313667047B0
:1007540000100240FF2805D00349CB6C01228240DF
:100764001343CB64704700BF001002404FF0E023F6
:1007740004221A61B0F1807F01D36FF07F404FF003
:10078400E023586107221A6170470000014B186882
:10079400704700BFBC010020014B00221A60704763
:1007A400BC010020024A136801331360704700BF84
:1007B400BC0100200D488546AFF300800C480D496C
:1007C4000D4A002302E0D458C4500433C4188C42A8
:1007D400F9D30A4A0A4C002301E013600432A2420E
:1007E400FBD3FFF7EDFCFFF775FDFEE7008001206A
:1007F400000000200400002030080008040000204D
:10080400C0010020FEE70000F8B500BFF8BC08BC3A
:100814009E467047F8B500BFF8BC08BC9E467047BA
:0808240011020008A9010008FF
:04082C00850100083A
:040830002000002084
:04000005080007B92F
:00000001FF
