:020000040800F2
:1000000000800120F50300084504000845040008AD
:1000100045040008450400084504000800000000ED
:10002000000000000000000000000000450400087F
:10003000000000000000000045040008E50300087F
:10004000450400084504000845040008450400086C
:10005000450400084504000845040008450400085C
:10006000450400084504000845040008450400084C
:10007000450400084504000845040008450400083C
:10008000450400084504000845040008450400082C
:10009000450400084504000845040008450400081C
:1000A000450400084504000845040008450400080C
:1000B00045040008450400084504000845040008FC
:1000C00045040008450400084504000845040008EC
:1000D00045040008450400084504000845040008DC
:1000E00045040008450400084504000845040008CC
:1000F00045040008450400084504000845040008BC
:1001000045040008450400084504000845040008AB
:10011000450400084504000845040008450400089B
:10012000450400084504000845040008450400088B
:10013000450400084504000845040008450400087B
:10014000450400084504000845040008450400086B
:10015000450400084504000845040008450400085B
:10016000450400084504000845040008450400084B
:10017000450400084504000845040008450400083B
:04018000450400082A
:1001840010B5054C237833B9044B13B10448AFF3CD
:1001940000800123237010BD040000200000000033
:1001A4004804000808B5034B1BB103490348AFF3E7
:1001B400008008BD0000000008000020480400087A
:1001C40070B50D4D0D4C641BA4100026A64209D138
:1001D4000B4D0C4C00F036F9641BA4100026A6420B
:1001E40005D170BD55F8043B98470136EEE755F844
:1001F400043B98470136F2E76004000860040008F5
:10020400600400086804000870477047024B13B18B
:10021400024800F005B870470000000031020008F1
:10022400002301461A46184600F014B838B5074DA5
:10023400074C641BA4101CB9BDE8384000F008B991
:10024400013C55F824309847F5E700BF68040008DE
:100254006C0400082DE9F047DFF874A00646DAF8CC
:10026400000098460F469146FFF7CEFF164B1C68D8
:100274000CB9164C1C606568DAF800001F2D05DD0A
:10028400FFF7C3FF4FF0FF30BDE8F0879EB104EBEA
:1002940085010122C1F88890D4F88831AA4013431B
:1002A400C4F88831022EC1F8088102BFD4F88C3119
:1002B4001343C4F88C316B1C0235636044F8257019
:1002C400FFF7A3FF0020DFE7240000202800002020
:1002D4000000002008B540F69F7000F071F80D2171
:1002E400044800F043F805214FF0904000F04AF82C
:1002F400002008BD00080048B0F1904F1ED0164BF6
:1003040098421DD003F5806398421BD003F58063A7
:10031400984219D003F58063984217D003F580639F
:10032400984215D003F58063984213D003F5806397
:10033400984201D0FF207047072070470020704783
:100344000120704702207047032070470420704743
:1003540005207047062070470004004803684900E0
:1003640003228A4023EA02030360704738B5044637
:100374000D46FFF7C1FF00F017F829462046FFF7A6
:10038400EDFF38BD38B505460C46FFF7B5FF00F064
:100394000BF821462846FFF7E1FF2B686400012291
:1003A400A24013432B6038BDFF2805D003490B6CD2
:1003B4000122824013430B64704700BF00100240C7
:1003C4004FF0E02304221A61B0F1807F01D36FF073
:1003D4007F404FF0E023586107221A617047000004
:1003E400024A136801331360704700BFB80100204C
:1003F4000D488546AFF300800C480D490D4A002393
:1004040002E0D458C4500433C4188C42F9D30A4AC5
:100414000A4C002301E013600432A242FBD3FFF72D
:10042400CFFEFFF757FFFEE7008001200000002009
:10043400040000206C04000804000020BC0100201B
:10044400FEE70000F8B500BFF8BC08BC9E46704744
:0C045400F8B500BFF8BC08BC9E4670471D
:0804600011020008A9010008C7
:040468008501000802
:04046C00200000204C
:04000005080003F5F7
:00000001FF
